S01200004D6167696346696768742E737265633F
S113000059C0000074C0000072C0000070C000003D
S11300106EC000006CC000006AC0000068C0000030
S113002066C0000064C0000062C0000060C0000040
S11300305EC00000E6C200005AC0000058C00000C4
S113004056C0000054C0000052C0000050C0000060
S11300504EC000004CC000004AC0000048C0000070
S113006046C0000044C0000042C0000040C0000080
S11300703EC000003CC000003AC0000038C0000090
S113008036C0000034C0000032C0000057035F03D4
S113009067037003780381038A0393039B03A30319
S11300A0C903D103D903E203EA03F303FC03050400
S11300B00D04150411241FBECFEFD0E4DEBFCDBF65
S11300C012E0A0E0B1E0EEE1FAE000E00BBF02C014
S11300D007900D92AC3FB107D9F725E0ACEFB2E041
S11300E001C01D92A831B207E1F7D2D396C488CFDC
S11300F070E09B01220F331F620F731F660F771F7F
S113010024E5429F600D711D1124FC01708B6787EB
S113011008950F931F93CF93DF93FC01A385B485B8
S11301205E9181E090E09C01038002C0220F331FA6
S11301300A94E2F7252B2C93A185B2855E919C014C
S1130140028002C0220F331F0A94E2F7252B2C935E
S1130150A581B6812C91008002C0880F991F0A9452
S1130160E2F7809582238C933281A185B285413058
S113017059F42C9181E090E002C0880F991F3A95C0
S1130180E2F7822B8C938CC02C9181E090E002C02A
S1130190880F991F3A95E2F7809582238C9380C04B
S11301A02381C385D485AB01082E02C0559547959C
S11301B00A94E2F740FF0BC048818D0102C0000F92
S11301C0111F2A95E2F79801242B28830BC038814C
S11301D0AD0102C0440F551F2A95E2F7242F209544
S11301E023232883C585D68548819D01048002C0C8
S11301F0220F331F0A94E2F7242B2883C585D68562
S11302003881AD01048002C0440F551F0A94E2F7FF
S1130210242F209523232883019710F6A581B681E6
S11302204C9181E090E09C01008002C0220F331FBA
S11302300A94E2F7242B2C93A385B4853E91AC0158
S1130240038002C0440F551F0A94E2F7242F20951F
S113025023232C93A185B2853E91AC01028002C078
S1130260440F551F0A94E2F7242F209523232C933F
S1130270A385B4854C919C01038002C0220F331FD7
S11302800A94E2F7242B2C93A185B2852C91028049
S113029002C0880F991F0A94E2F7822B8C9306C040
S11302A087E090E070E0A1E0B0E07ACFDF91CF91F9
S11302B01F910F9108950F931F93CF93DF93EC0138
S11302C0AB018B0116950795169507959801A7E83C
S11302D0B1E694D396958795969587959695879547
S11302E064E5689F9001699F300D1124421B530BF4
S11302F0642F606840E0CE010CDF9801A7E8B1E606
S11303007DD3969587959695879596958795682F2D
S1130310606440E0CE01FDDEDF91CF911F910F912B
S113032008950F931F93CF93DF938C01FC01108AE0
S1130330178660E070E0BFDFC8EFD1E041E060E025
S1130340C801E7DE2197D1F7DF91CF911F910F917B
S113035008956F927F928F92AF92BF92CF92EF9255
S1130360FF920F93CF93DF93CDB7DEB73C01DC014F
S113037016967C936E9315974C9318963C932E93F4
S1130380179711960C9311971A96FC92EE9219975F
S11303901296CC9212971C96BC92AE921B9713960F
S11303A08C9213978E859F851E969C938E931D9792
S11303B0888914968C931497F901608181E090E008
S11303C0AC0102C0440F551F0A95E2F7462B408347
S11303D01796ED91FC91189742919C0111960C90FF
S11303E0119702C0220F331F0A94E2F7242B2083B3
S11303F01596ED91FC91169742919C010C9002C0C8
S1130400220F331F0A94E2F7242B20831996ED91CF
S1130410FC911A9742919C0112960C90129702C07B
S1130420220F331F0A94E2F7242B20831B96ED91AD
S1130430FC911C9742919C0113960C90139702C057
S1130440220F331F0A94E2F7242B20831D96ED918B
S1130450FC911E9742919C0114960C9002C0220FAD
S1130460331F0A94E2F7242B2083AFE5BAEE1197E9
S1130470F1F700C00000D3011796ED91FC91189795
S11304803081AC0111960C9002C0440F551F0A94A0
S1130490E2F7242F209523232083BFEFEFE1F3E03D
S11304A0B150E040F040E1F700C00000D3011796DE
S11304B0ED91FC91189740819C0111960C90119735
S11304C002C0220F331F0A94E2F7242B20831596CF
S11304D0ED91FC91169720810C9002C0880F991F12
S11304E00A94E2F780958223808340E061E2C301AD
S11304F010DE40E068ECC3010CDE40E066E0C301BE
S113050008DE40E063E1C30104DE40E060E2C301D1
S113051000DE40E06CE0C301FCDDC30102DF40E02B
S113052061E2C301F6DD40E060ECC301F2DD40E0CE
S113053060E2C301EEDDDF91CF910F91FF90EF9068
S1130540CF90BF90AF908F907F906F9008951F933E
S1130550CF93DF93EC01162F6F857889ACDE41E0F1
S1130560612FCE01D6DD8F8598890196988B8F8770
S1130570DF91CF911F910895892B41F48091090354
S11305808823C1F081508093090314C083E68093CB
S1130590090384E68093070380930603E1E0F3E014
S11305A0ACEFB2E026E033E081E081938D93E21773
S11305B0F307D9F780E090E008958BE08093810001
S11305C08DE790E0909389008093880082E0809387
S11305D06F00109285001092840080910001909128
S11305E00101A0910201B09103018093130590933E
S11305F01405A0931505B09316058FB780688FBFB7
S113060008951F920F920FB60F9211248F939F9308
S1130610AF93BF938091130590911405A091150594
S1130620B09116050197A109B10980931305909320
S11306301405A0931505B0931605892B8A2B8B2BD3
S113064099F481E080931705809100019091010154
S1130650A0910201B09103018093130590931405B6
S1130660A0931505B0931605BF91AF919F918F91FB
S11306700F900FBE0F901F901895809109039DEC69
S1130680899F912D1124969596959695990F292FCA
S1130690220F220F920FE82FE91B4E2F50E04A3011
S11306A0510508F058C0FA01EA5BFF4F9EC1EAE029
S11306B0F3E09EEB93A722EA24A795A74CC0EAE0B7
S11306C0F3E090E893A794A79EEB95A744C0EAE0D3
S11306D0F3E09AEB93A79AEA94A79EEA95A73BC006
S11306E0EAE0F3E09AEA93A794A79EEB95A733C0B8
S11306F0EAE0F3E09EE893A798E894A79EEB95A719
S11307002AC0EAE0F3E09EEA93A79AEA94A79AEB58
S113071095A721C0EAE0F3E09EEB93A79AEA94A799
S11307209AEB95A718C0EAE0F3E092E893A794A7A0
S11307309EEB95A710C0EAE0F3E09EEB93A72AEAAC
S113074024A795A708C0EAE0F3E09EEA93A79AEAF3
S113075094A79EEB95A79DEC899F812D11248695E6
S113076086958695899F912D1124969596959695B3
S1130770990F292F220F220F920FE82FE91B8E2F9A
S113078090E08A30910508F058C0FC01E05BFF4F0F
S11307902CC1EAE0F3E08EEB86A392EA97A380A74C
S11307A00895EAE0F3E080E886A387A38EEB80A7B0
S11307B00895EAE0F3E08AEB86A38AEA87A38EEA47
S11307C080A70895EAE0F3E08AEA86A387A38EEB84
S11307D080A70895EAE0F3E08EE886A388E887A37B
S11307E08EEB80A70895EAE0F3E08EEA86A38AEA16
S11307F087A38AEB80A70895EAE0F3E08EEB86A353
S11308008AEA87A38AEB80A70895EAE0F3E082E806
S113081086A387A38EEB80A70895EAE0F3E08EEB2E
S113082086A39AEA97A380A70895EAE0F3E08EEA04
S113083086A38AEA87A38EEB80A708950F931F935C
S1130840CF93DF93892BE9F4E4E0F1E0CAE0D3E04D
S11308502CEF32E0DE0181918D93E217F307D9F793
S11308600CDF40E060E082E095E042DC02E015E06D
S1130870699182E095E06BDEC017D107C9F7109249
S1130880080380E090E0DF91CF911F910F910895CC
S1130890CF93DF93CDB7DEB766970FB6F894DEBF7C
S11308A00FBECDBF1FEF11B981E082B914B815B9DD
S11308B01AB81BB983E08F931F9288E28F936894D0
S11308C0882482F80F2EF8E2AF2EB12CF02D0F2ED3
S11308D0F5E0CF2EF02D0F2EF8E2EF2EF12CF02DB7
S11308E006E028E230E047E068E270E082E095E06C
S11308F030DD198382E090E0A0E0B0E08A839B833E
S1130900AC83BD838E839F83A887B9878CEB92E0E9
S11309109B878A871C8781E090E0A0E0B0E08D8708
S11309209E87AF87B88B898B9A8BAB8BBC8B8EE100
S113093094E09E8B8D8B82E390E0A0E0B0E0809306
S1130940000190930101A0930201B09303018093ED
S1130950130590931405A0931505B09316052DDE89
S11309600F900F900F907E0187E1E80EF11C8E012D
S11309700F5F1F4F6801D80115964D915D916D91E0
S11309807C91189711968D919D910D90BC91A02DFD
S1130990481759076A077B0781F4F80180810184AD
S11309A0F285E02D082E000C990B0995D8018C9343
S11309B0F8011582168217821086F60185819681C8
S11309C0A781B0850196A11DB11D85839683A78358
S11309D0B087055F1F4F0E151F0561F6809117053F
S11309E08823E1F310921705C2CFEE0FFF1F0024F6
S11309F0001C0BBE0790F691E02D0994A29FB00154
S1130A00B39FC001A39F700D811D1124911DB29F3E
S1110A10700D811D1124911D0895F894FFCFDF
S1130A1E01000000FF818181818181818181818139
S1130A2E81818181818181818181818181818181A4
S1130A3E8181818181818181FF808080808080801D
S1130A4E808080FF81818181818181818181818109
S1130A5E8181818181818181818181818181818174
S1130A6E81818181818181FF0000000000000000EE
S1130A7E0000000000000000000000000000000064
S1130A8E0000000000000000000000000000000054
S1130A9E0000000000000000000000000000000044
S1130AAE0000000000000000000000000000000034
S1130ABE0000000000000000000000000000000024
S1130ACE0000000000000000000000000000000014
S1130ADE0000000000000000000000000000000004
S1130AEE00000000000000000000000000000000F4
S1130AFE00000000000000000000000000000000E4
S1130B0E00000000000000000000000000000000D3
S1130B1E00000000000000000000000000000000C3
S1130B2E00000000000000000000000000000000B3
S1130B3E00000000000000000000000000000000A3
S1130B4E0000000000000000000000000000000093
S1130B5E0000000000000000000000000000000083
S1130B6E0000000000000000000000000000000073
S1130B7E0000000000000000000000000000000063
S1130B8E0000000000000000000000000000000053
S1130B9E0000000000000000000000000000000043
S1130BAE0000000000000000000000000000000033
S1130BBE0000000000000000000000000000000023
S1130BCE0000000000000000000000000000000013
S1130BDE0000000000000000000000000000000003
S1130BEE00000000000000000000000000000000F3
S1130BFE00000000000000000000000000000000E3
S10F0C0E000000000000000000000000D6
S9030000FC
